{
  "contractName": "LipToken",
  "abi": [
    {
      "inputs": [
        {
          "internalType": "string",
          "name": "_name",
          "type": "string"
        },
        {
          "internalType": "string",
          "name": "_symbol",
          "type": "string"
        }
      ],
      "stateMutability": "nonpayable",
      "type": "constructor"
    },
    {
      "anonymous": false,
      "inputs": [
        {
          "indexed": true,
          "internalType": "address",
          "name": "owner",
          "type": "address"
        },
        {
          "indexed": true,
          "internalType": "address",
          "name": "approved",
          "type": "address"
        },
        {
          "indexed": true,
          "internalType": "uint256",
          "name": "tokenId",
          "type": "uint256"
        }
      ],
      "name": "Approval",
      "type": "event"
    },
    {
      "anonymous": false,
      "inputs": [
        {
          "indexed": true,
          "internalType": "address",
          "name": "owner",
          "type": "address"
        },
        {
          "indexed": true,
          "internalType": "address",
          "name": "operator",
          "type": "address"
        },
        {
          "indexed": false,
          "internalType": "bool",
          "name": "approved",
          "type": "bool"
        }
      ],
      "name": "ApprovalForAll",
      "type": "event"
    },
    {
      "anonymous": false,
      "inputs": [
        {
          "indexed": true,
          "internalType": "address",
          "name": "owner",
          "type": "address"
        },
        {
          "indexed": false,
          "internalType": "uint256",
          "name": "id",
          "type": "uint256"
        },
        {
          "indexed": false,
          "internalType": "uint256",
          "name": "dna",
          "type": "uint256"
        }
      ],
      "name": "NewLip",
      "type": "event"
    },
    {
      "anonymous": false,
      "inputs": [
        {
          "indexed": true,
          "internalType": "address",
          "name": "previousOwner",
          "type": "address"
        },
        {
          "indexed": true,
          "internalType": "address",
          "name": "newOwner",
          "type": "address"
        }
      ],
      "name": "OwnershipTransferred",
      "type": "event"
    },
    {
      "anonymous": false,
      "inputs": [
        {
          "indexed": true,
          "internalType": "address",
          "name": "from",
          "type": "address"
        },
        {
          "indexed": true,
          "internalType": "address",
          "name": "to",
          "type": "address"
        },
        {
          "indexed": true,
          "internalType": "uint256",
          "name": "tokenId",
          "type": "uint256"
        }
      ],
      "name": "Transfer",
      "type": "event"
    },
    {
      "inputs": [
        {
          "internalType": "address",
          "name": "to",
          "type": "address"
        },
        {
          "internalType": "uint256",
          "name": "tokenId",
          "type": "uint256"
        }
      ],
      "name": "approve",
      "outputs": [],
      "stateMutability": "nonpayable",
      "type": "function"
    },
    {
      "inputs": [
        {
          "internalType": "address",
          "name": "owner",
          "type": "address"
        }
      ],
      "name": "balanceOf",
      "outputs": [
        {
          "internalType": "uint256",
          "name": "",
          "type": "uint256"
        }
      ],
      "stateMutability": "view",
      "type": "function",
      "constant": true
    },
    {
      "inputs": [
        {
          "internalType": "uint256",
          "name": "tokenId",
          "type": "uint256"
        }
      ],
      "name": "getApproved",
      "outputs": [
        {
          "internalType": "address",
          "name": "",
          "type": "address"
        }
      ],
      "stateMutability": "view",
      "type": "function",
      "constant": true
    },
    {
      "inputs": [
        {
          "internalType": "address",
          "name": "owner",
          "type": "address"
        },
        {
          "internalType": "address",
          "name": "operator",
          "type": "address"
        }
      ],
      "name": "isApprovedForAll",
      "outputs": [
        {
          "internalType": "bool",
          "name": "",
          "type": "bool"
        }
      ],
      "stateMutability": "view",
      "type": "function",
      "constant": true
    },
    {
      "inputs": [
        {
          "internalType": "uint256",
          "name": "",
          "type": "uint256"
        }
      ],
      "name": "lips",
      "outputs": [
        {
          "internalType": "string",
          "name": "name",
          "type": "string"
        },
        {
          "internalType": "uint256",
          "name": "id",
          "type": "uint256"
        },
        {
          "internalType": "uint256",
          "name": "dna",
          "type": "uint256"
        },
        {
          "internalType": "uint8",
          "name": "level",
          "type": "uint8"
        },
        {
          "internalType": "uint8",
          "name": "rarity",
          "type": "uint8"
        }
      ],
      "stateMutability": "view",
      "type": "function",
      "constant": true
    },
    {
      "inputs": [],
      "name": "name",
      "outputs": [
        {
          "internalType": "string",
          "name": "",
          "type": "string"
        }
      ],
      "stateMutability": "view",
      "type": "function",
      "constant": true
    },
    {
      "inputs": [],
      "name": "owner",
      "outputs": [
        {
          "internalType": "address",
          "name": "",
          "type": "address"
        }
      ],
      "stateMutability": "view",
      "type": "function",
      "constant": true
    },
    {
      "inputs": [
        {
          "internalType": "uint256",
          "name": "tokenId",
          "type": "uint256"
        }
      ],
      "name": "ownerOf",
      "outputs": [
        {
          "internalType": "address",
          "name": "",
          "type": "address"
        }
      ],
      "stateMutability": "view",
      "type": "function",
      "constant": true
    },
    {
      "inputs": [],
      "name": "renounceOwnership",
      "outputs": [],
      "stateMutability": "nonpayable",
      "type": "function"
    },
    {
      "inputs": [
        {
          "internalType": "address",
          "name": "from",
          "type": "address"
        },
        {
          "internalType": "address",
          "name": "to",
          "type": "address"
        },
        {
          "internalType": "uint256",
          "name": "tokenId",
          "type": "uint256"
        }
      ],
      "name": "safeTransferFrom",
      "outputs": [],
      "stateMutability": "nonpayable",
      "type": "function"
    },
    {
      "inputs": [
        {
          "internalType": "address",
          "name": "from",
          "type": "address"
        },
        {
          "internalType": "address",
          "name": "to",
          "type": "address"
        },
        {
          "internalType": "uint256",
          "name": "tokenId",
          "type": "uint256"
        },
        {
          "internalType": "bytes",
          "name": "_data",
          "type": "bytes"
        }
      ],
      "name": "safeTransferFrom",
      "outputs": [],
      "stateMutability": "nonpayable",
      "type": "function"
    },
    {
      "inputs": [
        {
          "internalType": "address",
          "name": "operator",
          "type": "address"
        },
        {
          "internalType": "bool",
          "name": "approved",
          "type": "bool"
        }
      ],
      "name": "setApprovalForAll",
      "outputs": [],
      "stateMutability": "nonpayable",
      "type": "function"
    },
    {
      "inputs": [
        {
          "internalType": "bytes4",
          "name": "interfaceId",
          "type": "bytes4"
        }
      ],
      "name": "supportsInterface",
      "outputs": [
        {
          "internalType": "bool",
          "name": "",
          "type": "bool"
        }
      ],
      "stateMutability": "view",
      "type": "function",
      "constant": true
    },
    {
      "inputs": [],
      "name": "symbol",
      "outputs": [
        {
          "internalType": "string",
          "name": "",
          "type": "string"
        }
      ],
      "stateMutability": "view",
      "type": "function",
      "constant": true
    },
    {
      "inputs": [
        {
          "internalType": "uint256",
          "name": "tokenId",
          "type": "uint256"
        }
      ],
      "name": "tokenURI",
      "outputs": [
        {
          "internalType": "string",
          "name": "",
          "type": "string"
        }
      ],
      "stateMutability": "view",
      "type": "function",
      "constant": true
    },
    {
      "inputs": [
        {
          "internalType": "address",
          "name": "from",
          "type": "address"
        },
        {
          "internalType": "address",
          "name": "to",
          "type": "address"
        },
        {
          "internalType": "uint256",
          "name": "tokenId",
          "type": "uint256"
        }
      ],
      "name": "transferFrom",
      "outputs": [],
      "stateMutability": "nonpayable",
      "type": "function"
    },
    {
      "inputs": [
        {
          "internalType": "address",
          "name": "newOwner",
          "type": "address"
        }
      ],
      "name": "transferOwnership",
      "outputs": [],
      "stateMutability": "nonpayable",
      "type": "function"
    },
    {
      "inputs": [
        {
          "internalType": "uint256",
          "name": "_fee",
          "type": "uint256"
        }
      ],
      "name": "updateFee",
      "outputs": [],
      "stateMutability": "nonpayable",
      "type": "function"
    },
    {
      "inputs": [],
      "name": "withdraw",
      "outputs": [],
      "stateMutability": "payable",
      "type": "function",
      "payable": true
    },
    {
      "inputs": [
        {
          "internalType": "string",
          "name": "_name",
          "type": "string"
        }
      ],
      "name": "createRandomLip",
      "outputs": [],
      "stateMutability": "payable",
      "type": "function",
      "payable": true
    },
    {
      "inputs": [],
      "name": "getLips",
      "outputs": [
        {
          "components": [
            {
              "internalType": "string",
              "name": "name",
              "type": "string"
            },
            {
              "internalType": "uint256",
              "name": "id",
              "type": "uint256"
            },
            {
              "internalType": "uint256",
              "name": "dna",
              "type": "uint256"
            },
            {
              "internalType": "uint8",
              "name": "level",
              "type": "uint8"
            },
            {
              "internalType": "uint8",
              "name": "rarity",
              "type": "uint8"
            }
          ],
          "internalType": "struct LipToken.Lip[]",
          "name": "",
          "type": "tuple[]"
        }
      ],
      "stateMutability": "view",
      "type": "function",
      "constant": true
    },
    {
      "inputs": [
        {
          "internalType": "address",
          "name": "_owner",
          "type": "address"
        }
      ],
      "name": "getOwnerLips",
      "outputs": [
        {
          "components": [
            {
              "internalType": "string",
              "name": "name",
              "type": "string"
            },
            {
              "internalType": "uint256",
              "name": "id",
              "type": "uint256"
            },
            {
              "internalType": "uint256",
              "name": "dna",
              "type": "uint256"
            },
            {
              "internalType": "uint8",
              "name": "level",
              "type": "uint8"
            },
            {
              "internalType": "uint8",
              "name": "rarity",
              "type": "uint8"
            }
          ],
          "internalType": "struct LipToken.Lip[]",
          "name": "",
          "type": "tuple[]"
        }
      ],
      "stateMutability": "view",
      "type": "function",
      "constant": true
    }
  ],
  "bytecode": "0x6080604052670de0b6b3a76400006008553480156200001d57600080fd5b50604051620022ac380380620022ac83398101604081905262000040916200025d565b81518290829062000059906000906020850190620000ea565b5080516200006f906001906020840190620000ea565b5050506200008c620000866200009460201b60201c565b62000098565b505062000304565b3390565b600680546001600160a01b038381166001600160a01b0319831681179093556040519116919082907f8be0079c531659141344cd1fd0a4f28419497f9722a3daafe3b4186f6b6457e090600090a35050565b828054620000f890620002c7565b90600052602060002090601f0160209004810192826200011c576000855562000167565b82601f106200013757805160ff191683800117855562000167565b8280016001018555821562000167579182015b82811115620001675782518255916020019190600101906200014a565b506200017592915062000179565b5090565b5b808211156200017557600081556001016200017a565b634e487b7160e01b600052604160045260246000fd5b600082601f830112620001b857600080fd5b81516001600160401b0380821115620001d557620001d562000190565b604051601f8301601f19908116603f0116810190828211818310171562000200576200020062000190565b816040528381526020925086838588010111156200021d57600080fd5b600091505b8382101562000241578582018301518183018401529082019062000222565b83821115620002535760008385830101525b9695505050505050565b600080604083850312156200027157600080fd5b82516001600160401b03808211156200028957600080fd5b6200029786838701620001a6565b93506020850151915080821115620002ae57600080fd5b50620002bd85828601620001a6565b9150509250929050565b600181811c90821680620002dc57607f821691505b60208210811415620002fe57634e487b7160e01b600052602260045260246000fd5b50919050565b611f9880620003146000396000f3fe6080604052600436106101355760003560e01c8063715018a6116100ab57806395d89b411161006f57806395d89b411461035a578063a22cb4651461036f578063b88d4fde1461038f578063c87b56dd146103af578063e985e9c5146103cf578063f2fde38b1461041857600080fd5b8063715018a6146102c557806383b5daf7146102da5780638c0b9c54146102fc5780638da5cb5b1461031c5780639012c4a81461033a57600080fd5b80633ccfd60b116100fd5780633ccfd60b1461020b57806342842e0e146102135780635ec163db146102335780636352211e14610264578063698d640c1461028457806370a082311461029757600080fd5b806301ffc9a71461013a57806306fdde031461016f578063081812fc14610191578063095ea7b3146101c957806323b872dd146101eb575b600080fd5b34801561014657600080fd5b5061015a61015536600461193c565b610438565b60405190151581526020015b60405180910390f35b34801561017b57600080fd5b5061018461048a565b60405161016691906119b1565b34801561019d57600080fd5b506101b16101ac3660046119c4565b61051c565b6040516001600160a01b039091168152602001610166565b3480156101d557600080fd5b506101e96101e43660046119f9565b6105b6565b005b3480156101f757600080fd5b506101e9610206366004611a23565b6106cc565b6101e96106fd565b34801561021f57600080fd5b506101e961022e366004611a23565b610777565b34801561023f57600080fd5b5061025361024e3660046119c4565b610792565b604051610166959493929190611a5f565b34801561027057600080fd5b506101b161027f3660046119c4565b610868565b6101e9610292366004611b25565b6108df565b3480156102a357600080fd5b506102b76102b2366004611b6e565b610936565b604051908152602001610166565b3480156102d157600080fd5b506101e96109bd565b3480156102e657600080fd5b506102ef6109f3565b6040516101669190611b89565b34801561030857600080fd5b506102ef610317366004611b6e565b610b19565b34801561032857600080fd5b506006546001600160a01b03166101b1565b34801561034657600080fd5b506101e96103553660046119c4565b610d11565b34801561036657600080fd5b50610184610d40565b34801561037b57600080fd5b506101e961038a366004611c27565b610d4f565b34801561039b57600080fd5b506101e96103aa366004611c63565b610e14565b3480156103bb57600080fd5b506101846103ca3660046119c4565b610e4c565b3480156103db57600080fd5b5061015a6103ea366004611cdf565b6001600160a01b03918216600090815260056020908152604080832093909416825291909152205460ff1690565b34801561042457600080fd5b506101e9610433366004611b6e565b610f34565b60006001600160e01b031982166380ac58cd60e01b148061046957506001600160e01b03198216635b5e139f60e01b145b8061048457506301ffc9a760e01b6001600160e01b03198316145b92915050565b60606000805461049990611d12565b80601f01602080910402602001604051908101604052809291908181526020018280546104c590611d12565b80156105125780601f106104e757610100808354040283529160200191610512565b820191906000526020600020905b8154815290600101906020018083116104f557829003601f168201915b5050505050905090565b6000818152600260205260408120546001600160a01b031661059a5760405162461bcd60e51b815260206004820152602c60248201527f4552433732313a20617070726f76656420717565727920666f72206e6f6e657860448201526b34b9ba32b73a103a37b5b2b760a11b60648201526084015b60405180910390fd5b506000908152600460205260409020546001600160a01b031690565b60006105c182610868565b9050806001600160a01b0316836001600160a01b0316141561062f5760405162461bcd60e51b815260206004820152602160248201527f4552433732313a20617070726f76616c20746f2063757272656e74206f776e656044820152603960f91b6064820152608401610591565b336001600160a01b038216148061064b575061064b81336103ea565b6106bd5760405162461bcd60e51b815260206004820152603860248201527f4552433732313a20617070726f76652063616c6c6572206973206e6f74206f7760448201527f6e6572206e6f7220617070726f76656420666f7220616c6c00000000000000006064820152608401610591565b6106c78383610fcc565b505050565b6106d6338261103a565b6106f25760405162461bcd60e51b815260040161059190611d4d565b6106c7838383611131565b6006546001600160a01b031633146107275760405162461bcd60e51b815260040161059190611d9e565b600061073b6006546001600160a01b031690565b6040519091506001600160a01b038216904780156108fc02916000818181858888f19350505050158015610773573d6000803e3d6000fd5b5050565b6106c783838360405180602001604052806000815250610e14565b600981815481106107a257600080fd5b90600052602060002090600402016000915090508060000180546107c590611d12565b80601f01602080910402602001604051908101604052809291908181526020018280546107f190611d12565b801561083e5780601f106108135761010080835404028352916020019161083e565b820191906000526020600020905b81548152906001019060200180831161082157829003601f168201915b50505050600183015460028401546003909401549293909290915060ff8082169161010090041685565b6000818152600260205260408120546001600160a01b0316806104845760405162461bcd60e51b815260206004820152602960248201527f4552433732313a206f776e657220717565727920666f72206e6f6e657869737460448201526832b73a103a37b5b2b760b91b6064820152608401610591565b60085434101561092a5760405162461bcd60e51b8152602060048201526016602482015275151a1948199959481a5cc81b9bdd0818dbdc9c9958dd60521b6044820152606401610591565b610933816112d1565b50565b60006001600160a01b0382166109a15760405162461bcd60e51b815260206004820152602a60248201527f4552433732313a2062616c616e636520717565727920666f7220746865207a65604482015269726f206164647265737360b01b6064820152608401610591565b506001600160a01b031660009081526003602052604090205490565b6006546001600160a01b031633146109e75760405162461bcd60e51b815260040161059190611d9e565b6109f16000611419565b565b60606009805480602002602001604051908101604052809291908181526020016000905b82821015610b1057838290600052602060002090600402016040518060a0016040529081600082018054610a4a90611d12565b80601f0160208091040260200160405190810160405280929190818152602001828054610a7690611d12565b8015610ac35780601f10610a9857610100808354040283529160200191610ac3565b820191906000526020600020905b815481529060010190602001808311610aa657829003601f168201915b50505091835250506001828101546020808401919091526002840154604084015260039093015460ff80821660608501526101009091041660809092019190915291835292019101610a17565b50505050905090565b60606000610b2683610936565b67ffffffffffffffff811115610b3e57610b3e611a99565b604051908082528060200260200182016040528015610ba757816020015b610b946040518060a00160405280606081526020016000815260200160008152602001600060ff168152602001600060ff1681525090565b815260200190600190039081610b5c5790505b5090506000805b600954811015610d0857846001600160a01b0316610bcb82610868565b6001600160a01b03161415610cf65760098181548110610bed57610bed611dd3565b90600052602060002090600402016040518060a0016040529081600082018054610c1690611d12565b80601f0160208091040260200160405190810160405280929190818152602001828054610c4290611d12565b8015610c8f5780601f10610c6457610100808354040283529160200191610c8f565b820191906000526020600020905b815481529060010190602001808311610c7257829003601f168201915b5050509183525050600182015460208201526002820154604082015260039091015460ff8082166060840152610100909104166080909101528351849084908110610cdc57610cdc611dd3565b60200260200101819052508180610cf290611dff565b9250505b80610d0081611dff565b915050610bae565b50909392505050565b6006546001600160a01b03163314610d3b5760405162461bcd60e51b815260040161059190611d9e565b600855565b60606001805461049990611d12565b6001600160a01b038216331415610da85760405162461bcd60e51b815260206004820152601960248201527f4552433732313a20617070726f766520746f2063616c6c6572000000000000006044820152606401610591565b3360008181526005602090815260408083206001600160a01b03871680855290835292819020805460ff191686151590811790915590519081529192917f17307eab39ab6107e8899845ad3d59bd9653f200f220920489ca2b5937696c31910160405180910390a35050565b610e1e338361103a565b610e3a5760405162461bcd60e51b815260040161059190611d4d565b610e468484848461146b565b50505050565b6000818152600260205260409020546060906001600160a01b0316610ecb5760405162461bcd60e51b815260206004820152602f60248201527f4552433732314d657461646174613a2055524920717565727920666f72206e6f60448201526e3732bc34b9ba32b73a103a37b5b2b760891b6064820152608401610591565b6000610ee260408051602081019091526000815290565b90506000815111610f025760405180602001604052806000815250610f2d565b80610f0c8461149e565b604051602001610f1d929190611e1a565b6040516020818303038152906040525b9392505050565b6006546001600160a01b03163314610f5e5760405162461bcd60e51b815260040161059190611d9e565b6001600160a01b038116610fc35760405162461bcd60e51b815260206004820152602660248201527f4f776e61626c653a206e6577206f776e657220697320746865207a65726f206160448201526564647265737360d01b6064820152608401610591565b61093381611419565b600081815260046020526040902080546001600160a01b0319166001600160a01b038416908117909155819061100182610868565b6001600160a01b03167f8c5be1e5ebec7d5bd14f71427d1e84f3dd0314c0f7b2291e5b200ac8c7c3b92560405160405180910390a45050565b6000818152600260205260408120546001600160a01b03166110b35760405162461bcd60e51b815260206004820152602c60248201527f4552433732313a206f70657261746f7220717565727920666f72206e6f6e657860448201526b34b9ba32b73a103a37b5b2b760a11b6064820152608401610591565b60006110be83610868565b9050806001600160a01b0316846001600160a01b031614806110f95750836001600160a01b03166110ee8461051c565b6001600160a01b0316145b8061112957506001600160a01b0380821660009081526005602090815260408083209388168352929052205460ff165b949350505050565b826001600160a01b031661114482610868565b6001600160a01b0316146111ac5760405162461bcd60e51b815260206004820152602960248201527f4552433732313a207472616e73666572206f6620746f6b656e2074686174206960448201526839903737ba1037bbb760b91b6064820152608401610591565b6001600160a01b03821661120e5760405162461bcd60e51b8152602060048201526024808201527f4552433732313a207472616e7366657220746f20746865207a65726f206164646044820152637265737360e01b6064820152608401610591565b611219600082610fcc565b6001600160a01b0383166000908152600360205260408120805460019290611242908490611e49565b90915550506001600160a01b0382166000908152600360205260408120805460019290611270908490611e60565b909155505060008181526002602052604080822080546001600160a01b0319166001600160a01b0386811691821790925591518493918716917fddf252ad1be2c89b69c2b068fc378daa952ba7f163c4a11628f55a4df523b3ef91a4505050565b60006112dd606461159c565b905060006112f1662386f26fc1000061159c565b6040805160a08101825285815260075460208083019190915291810183905260016060820181905260ff86166080830152600980549182018155600052815180519495509193849360049092027f6e1540171b6c0c960b71a7020d9f60077f6af931a8bbf590da0223dacf75c7af019261136f92849291019061188d565b50602082015160018201556040820151600282015560608201516003909101805460809093015160ff9081166101000261ffff199094169216919091179190911790556007546113c09033906115f1565b600754604080519182526020820184905233917f24d2d558f98bdd9d21339e119fc0b03e213c7d05affd838ac2ee136d90e3bbeb910160405180910390a26007805490600061140e83611dff565b919050555050505050565b600680546001600160a01b038381166001600160a01b0319831681179093556040519116919082907f8be0079c531659141344cd1fd0a4f28419497f9722a3daafe3b4186f6b6457e090600090a35050565b611476848484611131565b6114828484848461160b565b610e465760405162461bcd60e51b815260040161059190611e78565b6060816114c25750506040805180820190915260018152600360fc1b602082015290565b8160005b81156114ec57806114d681611dff565b91506114e59050600a83611ee0565b91506114c6565b60008167ffffffffffffffff81111561150757611507611a99565b6040519080825280601f01601f191660200182016040528015611531576020820181803683370190505b5090505b841561112957611546600183611e49565b9150611553600a86611ef4565b61155e906030611e60565b60f81b81838151811061157357611573611dd3565b60200101906001600160f81b031916908160001a905350611595600a86611ee0565b9450611535565b60008042336040516020016115cd92919091825260601b6bffffffffffffffffffffffff1916602082015260340190565b60408051601f1981840301815291905280516020909101209050610f2d8382611ef4565b610773828260405180602001604052806000815250611718565b60006001600160a01b0384163b1561170d57604051630a85bd0160e11b81526001600160a01b0385169063150b7a029061164f903390899088908890600401611f08565b602060405180830381600087803b15801561166957600080fd5b505af1925050508015611699575060408051601f3d908101601f1916820190925261169691810190611f45565b60015b6116f3573d8080156116c7576040519150601f19603f3d011682016040523d82523d6000602084013e6116cc565b606091505b5080516116eb5760405162461bcd60e51b815260040161059190611e78565b805181602001fd5b6001600160e01b031916630a85bd0160e11b149050611129565b506001949350505050565b611722838361174b565b61172f600084848461160b565b6106c75760405162461bcd60e51b815260040161059190611e78565b6001600160a01b0382166117a15760405162461bcd60e51b815260206004820181905260248201527f4552433732313a206d696e7420746f20746865207a65726f20616464726573736044820152606401610591565b6000818152600260205260409020546001600160a01b0316156118065760405162461bcd60e51b815260206004820152601c60248201527f4552433732313a20746f6b656e20616c7265616479206d696e746564000000006044820152606401610591565b6001600160a01b038216600090815260036020526040812080546001929061182f908490611e60565b909155505060008181526002602052604080822080546001600160a01b0319166001600160a01b03861690811790915590518392907fddf252ad1be2c89b69c2b068fc378daa952ba7f163c4a11628f55a4df523b3ef908290a45050565b82805461189990611d12565b90600052602060002090601f0160209004810192826118bb5760008555611901565b82601f106118d457805160ff1916838001178555611901565b82800160010185558215611901579182015b828111156119015782518255916020019190600101906118e6565b5061190d929150611911565b5090565b5b8082111561190d5760008155600101611912565b6001600160e01b03198116811461093357600080fd5b60006020828403121561194e57600080fd5b8135610f2d81611926565b60005b8381101561197457818101518382015260200161195c565b83811115610e465750506000910152565b6000815180845261199d816020860160208601611959565b601f01601f19169290920160200192915050565b602081526000610f2d6020830184611985565b6000602082840312156119d657600080fd5b5035919050565b80356001600160a01b03811681146119f457600080fd5b919050565b60008060408385031215611a0c57600080fd5b611a15836119dd565b946020939093013593505050565b600080600060608486031215611a3857600080fd5b611a41846119dd565b9250611a4f602085016119dd565b9150604084013590509250925092565b60a081526000611a7260a0830188611985565b602083019690965250604081019390935260ff918216606084015216608090910152919050565b634e487b7160e01b600052604160045260246000fd5b600067ffffffffffffffff80841115611aca57611aca611a99565b604051601f8501601f19908116603f01168101908282118183101715611af257611af2611a99565b81604052809350858152868686011115611b0b57600080fd5b858560208301376000602087830101525050509392505050565b600060208284031215611b3757600080fd5b813567ffffffffffffffff811115611b4e57600080fd5b8201601f81018413611b5f57600080fd5b61112984823560208401611aaf565b600060208284031215611b8057600080fd5b610f2d826119dd565b60006020808301818452808551808352604092508286019150828160051b87010184880160005b83811015611c1957603f19898403018552815160a08151818652611bd682870182611985565b838b0151878c0152898401518a88015260608085015160ff9081169189019190915260809485015116939096019290925250509386019390860190600101611bb0565b509098975050505050505050565b60008060408385031215611c3a57600080fd5b611c43836119dd565b915060208301358015158114611c5857600080fd5b809150509250929050565b60008060008060808587031215611c7957600080fd5b611c82856119dd565b9350611c90602086016119dd565b925060408501359150606085013567ffffffffffffffff811115611cb357600080fd5b8501601f81018713611cc457600080fd5b611cd387823560208401611aaf565b91505092959194509250565b60008060408385031215611cf257600080fd5b611cfb836119dd565b9150611d09602084016119dd565b90509250929050565b600181811c90821680611d2657607f821691505b60208210811415611d4757634e487b7160e01b600052602260045260246000fd5b50919050565b60208082526031908201527f4552433732313a207472616e736665722063616c6c6572206973206e6f74206f6040820152701ddb995c881b9bdc88185c1c1c9bdd9959607a1b606082015260800190565b6020808252818101527f4f776e61626c653a2063616c6c6572206973206e6f7420746865206f776e6572604082015260600190565b634e487b7160e01b600052603260045260246000fd5b634e487b7160e01b600052601160045260246000fd5b6000600019821415611e1357611e13611de9565b5060010190565b60008351611e2c818460208801611959565b835190830190611e40818360208801611959565b01949350505050565b600082821015611e5b57611e5b611de9565b500390565b60008219821115611e7357611e73611de9565b500190565b60208082526032908201527f4552433732313a207472616e7366657220746f206e6f6e20455243373231526560408201527131b2b4bb32b91034b6b83632b6b2b73a32b960711b606082015260800190565b634e487b7160e01b600052601260045260246000fd5b600082611eef57611eef611eca565b500490565b600082611f0357611f03611eca565b500690565b6001600160a01b0385811682528416602082015260408101839052608060608201819052600090611f3b90830184611985565b9695505050505050565b600060208284031215611f5757600080fd5b8151610f2d8161192656fea2646970667358221220420ed6ec08281dab8aafca69cb81132a0d78f55928b010ab1f72a14618317e9364736f6c63430008090033",
  "immutableReferences": {},
  "source": "// SPDX-License-Identifier: MIT\r\n\r\npragma solidity 0.8.9;\r\n\r\nimport \"../client/node_modules/@openzeppelin/contracts/token/ERC721/ERC721.sol\";\r\nimport \"../client/node_modules/@openzeppelin/contracts/access/Ownable.sol\";\r\n\r\ncontract LipToken is ERC721, Ownable {\r\n    constructor(string memory _name, string memory _symbol) ERC721(_name, _symbol) {}\r\n    \r\n    uint256 COUNTER;\r\n    \r\n    uint256 fee = 1 ether;\r\n    \r\n    struct Lip {\r\n        string name;\r\n        uint256 id;\r\n        uint256 dna;\r\n        uint8 level;\r\n        uint8 rarity;\r\n    }\r\n    \r\n    Lip[] public lips;\r\n    \r\n    event NewLip(address indexed owner, uint256 id, uint256 dna);\r\n    \r\n    // Helpers\r\n    function _createRandomNum(uint256 _mod) internal view returns (uint256) {\r\n        uint256 randomNum = uint256(keccak256(abi.encodePacked(block.timestamp, msg.sender)));\r\n        return randomNum % _mod;\r\n    }\r\n    \r\n    function updateFee(uint256 _fee) external onlyOwner {\r\n        fee = _fee;\r\n    }\r\n    \r\n    function withdraw() external payable onlyOwner {\r\n        address payable _owner = payable(owner());\r\n        _owner.transfer(address(this).balance);\r\n    }\r\n    \r\n    // Creation\r\n    function _createLip(string memory _name) internal {\r\n        uint8 randRarity = uint8(_createRandomNum(100));\r\n        uint256 randDna = _createRandomNum(10**16);\r\n        Lip memory newLip = Lip(_name, COUNTER, randDna, 1, randRarity);\r\n        lips.push(newLip);\r\n        _safeMint(msg.sender, COUNTER);\r\n        \r\n        emit NewLip(msg.sender, COUNTER, randDna);\r\n        COUNTER++;\r\n    }\r\n    \r\n    function createRandomLip(string memory _name) public payable {\r\n        require(msg.value >= fee, \"The fee is not correct\");\r\n        _createLip(_name);\r\n    }\r\n    \r\n    // Getters\r\n    function getLips() public view returns (Lip[] memory) {\r\n        return lips;\r\n    }\r\n\r\n    function getOwnerLips(address _owner) public view returns (Lip[] memory) {\r\n        Lip[] memory result = new Lip[](balanceOf(_owner));\r\n        uint256 counter;\r\n        for(uint256 i = 0; i < lips.length; i++) {\r\n            if(ownerOf(i) == _owner) {\r\n                result[counter] = lips[i];\r\n                counter++;\r\n            }\r\n        }\r\n        return result;\r\n    }\r\n}",
  "sourcePath": "X:\\Travail\\Blockchain\\Projets\\nft-card-game\\contracts\\LipToken.sol",
  "compiler": {
    "name": "solc",
    "version": "0.8.9+commit.e5eed63a.Emscripten.clang"
  },
  "schemaVersion": "3.4.3",
  "updatedAt": "2021-10-13T16:31:45.303Z",
  "networkType": "ethereum",
  "devdoc": {
    "kind": "dev",
    "methods": {
      "approve(address,uint256)": {
        "details": "See {IERC721-approve}."
      },
      "balanceOf(address)": {
        "details": "See {IERC721-balanceOf}."
      },
      "getApproved(uint256)": {
        "details": "See {IERC721-getApproved}."
      },
      "isApprovedForAll(address,address)": {
        "details": "See {IERC721-isApprovedForAll}."
      },
      "name()": {
        "details": "See {IERC721Metadata-name}."
      },
      "owner()": {
        "details": "Returns the address of the current owner."
      },
      "ownerOf(uint256)": {
        "details": "See {IERC721-ownerOf}."
      },
      "renounceOwnership()": {
        "details": "Leaves the contract without owner. It will not be possible to call `onlyOwner` functions anymore. Can only be called by the current owner. NOTE: Renouncing ownership will leave the contract without an owner, thereby removing any functionality that is only available to the owner."
      },
      "safeTransferFrom(address,address,uint256)": {
        "details": "See {IERC721-safeTransferFrom}."
      },
      "safeTransferFrom(address,address,uint256,bytes)": {
        "details": "See {IERC721-safeTransferFrom}."
      },
      "setApprovalForAll(address,bool)": {
        "details": "See {IERC721-setApprovalForAll}."
      },
      "supportsInterface(bytes4)": {
        "details": "See {IERC165-supportsInterface}."
      },
      "symbol()": {
        "details": "See {IERC721Metadata-symbol}."
      },
      "tokenURI(uint256)": {
        "details": "See {IERC721Metadata-tokenURI}."
      },
      "transferFrom(address,address,uint256)": {
        "details": "See {IERC721-transferFrom}."
      },
      "transferOwnership(address)": {
        "details": "Transfers ownership of the contract to a new account (`newOwner`). Can only be called by the current owner."
      }
    },
    "version": 1
  },
  "userdoc": {
    "kind": "user",
    "methods": {},
    "version": 1
  }
}